{
  "address": "0x29A6473c8c7c4D59696D42AfaA10025cd2F84a47",
  "abi": [
    {
      "constant": false,
      "inputs": [],
      "name": "destroy",
      "outputs": [],
      "payable": false,
      "stateMutability": "nonpayable",
      "type": "function"
    },
    {
      "constant": true,
      "inputs": [],
      "name": "answer",
      "outputs": [
        {
          "name": "",
          "type": "uint8"
        }
      ],
      "payable": false,
      "stateMutability": "view",
      "type": "function"
    },
    {
      "constant": false,
      "inputs": [
        {
          "name": "target",
          "type": "address"
        }
      ],
      "name": "getNumber",
      "outputs": [],
      "payable": true,
      "stateMutability": "payable",
      "type": "function"
    },
    {
      "payable": true,
      "stateMutability": "payable",
      "type": "fallback"
    }
  ],
  "transactionHash": "0x3bce78773dc4680e1c91ef71d609f320210eba3cd2fb95f2b8b97178edc988a7",
  "args": [],
  "solcInputHash": "6d91817326fb35a362ebf8a278610ac1",
  "bytecode": "0x6060604052341561000f57600080fd5b61020d8061001e6000396000f300606060405260043610610057576000357c0100000000000000000000000000000000000000000000000000000000900463ffffffff16806383197ef01461005957806385bb7d691461006e578063942ea4661461009d575b005b341561006457600080fd5b61006c6100cb565b005b341561007957600080fd5b6100816100e4565b604051808260ff1660ff16815260200191505060405180910390f35b6100c9600480803573ffffffffffffffffffffffffffffffffffffffff169060200190919050506100f6565b005b3373ffffffffffffffffffffffffffffffffffffffff16ff5b6000809054906101000a900460ff1681565b6000819050600143034042604051808360001916600019168152602001828152602001925050506040518091039020600190046000806101000a81548160ff021916908360ff1602179055508073ffffffffffffffffffffffffffffffffffffffff16634ba4c16b670de0b6b3a76400006000809054906101000a900460ff166040518363ffffffff167c0100000000000000000000000000000000000000000000000000000000028152600401808260ff1660ff1681526020019150506000604051808303818588803b15156101cc57600080fd5b5af115156101d957600080fd5b5050505050505600a165627a7a72305820c17c9cba9b953ec01f83eaa4eaa44c28b96d13cd8edbd2faad8e5e03badb5fd20029"
}