{
  "address": "0x4C9708231474535b07C811D9d2f521FE3EdD11a5",
  "abi": [
    {
      "constant": false,
      "inputs": [],
      "name": "success",
      "outputs": [],
      "payable": false,
      "stateMutability": "nonpayable",
      "type": "function"
    },
    {
      "constant": false,
      "inputs": [
        {
          "name": "_target",
          "type": "address"
        }
      ],
      "name": "setTargetContract",
      "outputs": [],
      "payable": false,
      "stateMutability": "nonpayable",
      "type": "function"
    },
    {
      "constant": false,
      "inputs": [],
      "name": "destroy",
      "outputs": [],
      "payable": false,
      "stateMutability": "nonpayable",
      "type": "function"
    },
    {
      "constant": false,
      "inputs": [],
      "name": "guess",
      "outputs": [],
      "payable": false,
      "stateMutability": "nonpayable",
      "type": "function"
    },
    {
      "constant": true,
      "inputs": [],
      "name": "target",
      "outputs": [
        {
          "name": "",
          "type": "address"
        }
      ],
      "payable": false,
      "stateMutability": "view",
      "type": "function"
    },
    {
      "payable": true,
      "stateMutability": "payable",
      "type": "fallback"
    }
  ],
  "transactionHash": "0x99a378a80a31407d0f77e0536aec8d920db3ef0dbbf3f01651c6e991c126d3fb",
  "args": [],
  "solcInputHash": "cca1fce023d3a67b4fa6f8d547bf1512",
  "bytecode": "0x60606040526000600102600090600019169055341561001d57600080fd5b6103378061002c6000396000f30060606040526004361061006d576000357c0100000000000000000000000000000000000000000000000000000000900463ffffffff1680630b93381b1461006f57806347fc822f1461008457806383197ef0146100bd578063a28b749a146100d2578063d4b83992146100e7575b005b341561007a57600080fd5b61008261013c565b005b341561008f57600080fd5b6100bb600480803573ffffffffffffffffffffffffffffffffffffffff169060200190919050506101d3565b005b34156100c857600080fd5b6100d0610217565b005b34156100dd57600080fd5b6100e5610230565b005b34156100f257600080fd5b6100fa6102e5565b604051808273ffffffffffffffffffffffffffffffffffffffff1673ffffffffffffffffffffffffffffffffffffffff16815260200191505060405180910390f35b600160009054906101000a900473ffffffffffffffffffffffffffffffffffffffff1673ffffffffffffffffffffffffffffffffffffffff166311da60b46040518163ffffffff167c0100000000000000000000000000000000000000000000000000000000028152600401600060405180830381600087803b15156101c157600080fd5b5af115156101ce57600080fd5b505050565b80600160006101000a81548173ffffffffffffffffffffffffffffffffffffffff021916908373ffffffffffffffffffffffffffffffffffffffff16021790555050565b3373ffffffffffffffffffffffffffffffffffffffff16ff5b600160009054906101000a900473ffffffffffffffffffffffffffffffffffffffff1673ffffffffffffffffffffffffffffffffffffffff1663ed7f559c670de0b6b3a76400006000546040518363ffffffff167c01000000000000000000000000000000000000000000000000000000000281526004018082600019166000191681526020019150506000604051808303818588803b15156102d257600080fd5b5af115156102df57600080fd5b50505050565b600160009054906101000a900473ffffffffffffffffffffffffffffffffffffffff16815600a165627a7a72305820a55d0cf6ff0750114e44b98eb7ed18af9904cc5d33378aa0b36569574f033d1d0029"
}